:020000040800F2
:1000000000180020411A0008D1190008D31900086F
:1000100000000000000000000000000000000000E0
:10002000000000000000000000000000D5190008DA
:100030000000000000000000D7190008D9190008CE
:10004000C11A0008C11A0008C11A0008C11A000824
:10005000C11A0008C11A0008C11A0008C11A000814
:10006000C11A0008C11A0008C11A0008C11A000804
:10007000C11A0008C11A0008C11A0008C11A0008F4
:10008000C11A00080000000000000000C11A0008AA
:1000900000000000C11A0008C11A0008C11A0008B7
:1000A00000000000C11A0008C11A0008C11A0008A7
:1000B000C11A000800000000C11A0008C11A000897
:1000C00010B5064C2378002B07D1054B002B02D02E
:1000D000044800E000BF0123237010BD0C00002085
:1000E000000000001C1B0008044B10B5002B03D0BF
:1000F0000349044800E000BF10BDC04600000000F6
:10010000100000201C1B0008002243088B4274D3FF
:1001100003098B425FD3030A8B4244D3030B8B4208
:1001200028D3030C8B420DD3FF22090212BA030C11
:100130008B4202D31212090265D0030B8B4219D3F2
:1001400000E0090AC30B8B4201D3CB03C01A524112
:10015000830B8B4201D38B03C01A5241430B8B425A
:1001600001D34B03C01A5241030B8B4201D30B0343
:10017000C01A5241C30A8B4201D3CB02C01A52416A
:10018000830A8B4201D38B02C01A5241430A8B422D
:1001900001D34B02C01A5241030A8B4201D30B0216
:1001A000C01A5241CDD2C3098B4201D3CB01C01A30
:1001B000524183098B4201D38B01C01A524143093A
:1001C0008B4201D34B01C01A524103098B4201D328
:1001D0000B01C01A5241C3088B4201D3CB00C01A95
:1001E000524183088B4201D38B00C01A524143080D
:1001F0008B4201D34B00C01A5241411A00D2014632
:10020000524110467047FFE701B5002000F006F8A4
:1002100002BDC0460029F7D076E770477047C04658
:1002200010B5040000F0DAFCFA218900FFF76CFF3A
:1002300000F068F8012000222100404200F032F86E
:10024000002010BD10B5064A136810210B4313603F
:100250000020FFF7E5FF01F003FB002010BDC046C2
:1002600000200240024A1368013313607047C04601
:1002700028000020014B18687047C0462800002065
:1002800030B583B00190FFF7F5FF0500019C631CBA
:1002900000D00134FFF7EEFF401BA042FAD303B0B9
:1002A00030BD000070B5002811DB8408134DC03448
:1002B000A400625903231840C000FC331E0086408E
:1002C000B24389010B4083401343635170BDC0B2F8
:1002D0000F220240083A920806329200084BD318C7
:1002E0005D6803242040C000FF2214008440A54321
:1002F00089010A4082402A435A60E7E700E100E0B2
:1003000000ED00E001380A4B98420FD8094A5060CE
:100310000948036A1B021B0AC02109060B4303623A
:100320000023936007331360002070470120FCE72F
:10033000FFFFFF0010E000E000ED00E0F0B5C64672
:1003400000B582B000236EE084683440A446CC68D7
:10035000BC406246144384604468AC434A68120956
:10036000012515409D4025434560C46826408C68A2
:10037000BC403443C4604A68D20053D54A4DAE698C
:1003800001242643AE61AD692C400194019C9C0878
:10039000A51CAD00454EAF5903251D40AD000F26ED
:1003A000AE40B7439026F605B04275D0404EB042FD
:1003B00074D0404EB0426DD00526AE4035003D436E
:1003C0000234A400394EA5513B4C25684246D44323
:1003D0002E0026404A68D20302D5424615432E001D
:1003E000354D2E606D682E0026404A68920302D576
:1003F000424615432E00304D6E60AD682E002640FB
:100400004A68D20202D5424615432E002A4DAE60FC
:10041000ED682C404A68920202D542462A431400F5
:10042000254AD46001330A681400DC4038D0012525
:100430009D402A409046F5D04C68022C01D0122CE9
:100440000ED1DC080834A400275807261E40B60049
:100450000F22B24097430A69B24016003E4326502D
:1004600002685F0003242600BE40F64332409446F3
:100470004A681440BC406246144304604C68621EE3
:10048000012A00D860E7112C00D15DE7122C00D0C2
:100490006BE759E7022690E700268EE701268CE7F6
:1004A00002B004BC9046F0BD0010024000000140C4
:1004B000000400480008004800040140002A01D15F
:1004C000816270478161FCE770B582B00400036807
:1004D000DB072BD5B34B5A680C231340042B1DD0DC
:1004E000B04B5A680C231340082B0ED06368012BC5
:1004F00041D0002B56D1AB4B1A68AB490A401A6069
:100500001A68AA490A401A603BE0A64B5B68C02201
:1005100052021340802252029342E7D1A14B1B6842
:100520009B0303D56368002B00D139E223689B0746
:1005300078D59C4B5B680C221A4262D0994B5A6862
:100540000C231340082B53D0E368002B00D18BE021
:10055000944A136801210B431360FFF78BFE0500DB
:10056000904B1B689B0776D4FFF784FE401B022844
:10057000F6D9032017E28B4A116880235B020B43F4
:1005800013606368002B25D0FFF774FE0500854BD0
:100590001B689B03CAD4FFF76DFE401B6428F6D985
:1005A000032000E2052B09D07E4B1A687E490A40E1
:1005B0001A601A687D490A401A60E2E7794B1968A7
:1005C0008022D2020A431A601968802252020A432A
:1005D0001A60D6E7FFF74EFE0500724B1B689B03BF
:1005E000A4D5FFF747FE401B6428F6D90320DAE1C3
:1005F0006C4B5B68C022520213408022120293426D
:10060000A2D1684B1B689B0704D5E368012B01D07E
:100610000120C8E163490B68F82293432269D200A4
:1006200013430B6023681B0744D5E369002B2ED0CE
:100630005C4A536A01210B435362FFF71BFE05001E
:10064000584B5B6A9B0735D4FFF714FE401B02280A
:10065000F6D90320A7E153490B68F8229343226996
:10066000D20013430B60DDE74E4A136801218B4330
:100670001360FFF7FFFD05004A4B1B689B07D1D5B0
:10068000FFF7F8FD401B0228F6D903208BE1454A0D
:10069000536A01218B435362FFF7ECFD0500414B88
:1006A0005B6A9B0706D5FFF7E5FD401B0228F6D9DC
:1006B000032078E123685B0700D47FE0394BDB69D6
:1006C000DB001DD4374AD169802040050143D16148
:1006D000D36903400193019B0125354B1B68DB0562
:1006E00010D5A368012B21D0002B36D12D4B1A6ACF
:1006F00001218A431A621A6A03318A431A621AE094
:100700000025EAE72A4A116880235B000B43136047
:10071000FFF7B0FD0600264B1B68DB05E1D4FFF7B1
:10072000A9FD801B6428F6D903203CE11D4A136A09
:1007300001210B431362A368002B24D0FFF79AFD1D
:100740000600184B1B6A9B0736D4FFF793FD801BEE
:10075000184B9842F5D9032025E1052B09D0114B00
:100760001A6A01218A431A621A6A03318A431A6299
:10077000E1E70C4B1A6A04210A431A621A6A033928
:100780000A431A62D7E7FFF775FD0600054B1B6A9F
:100790009B0711D5FFF76EFD801B064B9842F5D9DC
:1007A000032000E100100240FFFFFEFFFFFFFBFF00
:1007B0000070004088130000012D3AD02368DB064A
:1007C00010D56369012B3AD0053358D1784A536B61
:1007D00004218B435363536BF4318B43A169C900EC
:1007E0000B43536323689B0600D482E0704B5A6826
:1007F0000C2313400C2B60D06D4B5A680C23134014
:10080000082B53D0236A002B60D0694A516B802398
:100810005B020B435363FFF72DFD0500644B5B6BDD
:10082000DB0366D4FFF726FD401B0228F6D9032020
:10083000B9E05F4AD3695F490B40D361BEE75C4BC7
:100840005A6B04210A435A635A6B03390A435A63A9
:10085000FFF710FD0500564B5B6B9B0706D4FFF7B7
:1008600009FD401B0228F6D903209CE050494B6B40
:10087000F8229343A269D20013434B63B2E74C4B77
:100880005A6B04210A435A635A6B03398A435A63E9
:10089000FFF7F0FC0500464B5B6B9B07A2D5FFF70B
:1008A000E9FC401B0228F6D903207CE0404B5B6842
:1008B000C022520213409342A4D13D4B5B6BDB0339
:1008C00017D5236A012B14D001206CE0384A536BF2
:1008D00039490B405363FFF7CDFC0500344B5B6B8C
:1008E000DB0306D5FFF7C6FC401B0228F6D9032020
:1008F00059E0636A002B55D02D4A51680C220A40FA
:10090000082A52D0022B12D0294A13682B490B40D7
:100910001360FFF7AFFC0400254B1B689B013DD51E
:10092000FFF7A8FC001B0228F6D903203BE0204A71
:10093000136822490B401360FFF79CFC05001C4B19
:100940001B689B0106D5FFF795FC401B0228F6D9D2
:10095000032028E0164BDA6A0F218A43216B0A43F1
:10096000DA625A6816490A40E16AA06A01430A43FA
:100970005A601968802252040A431A60FFF77AFC11
:1009800004000B4B1B689B0106D4FFF773FC001B94
:100990000228F6D9032006E0002004E0002002E04F
:1009A000012000E0002002B070BD0120FBE7C0463E
:1009B00000100240FFFFFFEFFFFFFEFFFFFFFFFE03
:1009C000FF7FC2FF30B589B004AA1F4B180032C8A0
:1009D00032C2110002680A606A46103313CB13C298
:1009E0001B681360194B5A680C231340082B04D062
:1009F0000C2B26D0164809B030BD910C0F2319409E
:100A000004A8445C1149C96A0B406946C95CC0230B
:100A10005B021A4080235B029A4208D0C0235B022B
:100A20009A4209D00A48FFF76FFB6043E3E70848A2
:100A3000FFF76AFB6043DEE70648FFF765FB6043AC
:100A4000D9E70448D7E7C046341B0008001002402D
:100A500000127A00006CDC0270B505000C00594BE6
:100A60001A68012313408B420BD256490B680122AE
:100A7000934323430B600B681A40A24201D001202C
:100A800070BD2B689B0706D54F4A5368F0218B43F6
:100A9000A9680B4353602B68DB0763D56B68012B98
:100AA00009D0022B28D0032B2CD0474A126892077A
:100AB00005D40120E4E7444A126892037FD54249F5
:100AC0004A680320824313434B60FFF7D3FB0600C1
:100AD0006B68012B1CD0022B28D0032B34D03A4B4F
:100AE0005B680C221A423DD0FFF7C4FB801B374BDA
:100AF0009842F4D90320C3E7334A12689201DED446
:100B00000120BDE7304A526BD203D8D40120B7E7A9
:100B10002D4B5A680C231340042B23D0FFF7AAFB5C
:100B2000801B2A4B9842F3D90320A9E7264B5A6829
:100B30000C231340082B15D0FFF79CFB801B234B85
:100B40009842F3D903209BE71F4B5A680C231340AC
:100B50000C2B07D0FFF78EFB801B1C4B9842F3D960
:100B600003208DE7174B1A6801231340A3420BD9CA
:100B700014490B680122934323430B600B681A400E
:100B8000A24201D001207BE72B685B0706D50E4A05
:100B900053680F490B40E9680B435360FFF712FF9E
:100BA000094B5A6812090F2313400A4AD35CD840F4
:100BB000094B18600020FFF733FB002060E701209D
:100BC0005EE7C0460020024000100240881300008B
:100BD000FFF8FFFF541B000808000020014B1868B5
:100BE0007047C0460800002010B5FFF7F7FF044B20
:100BF0005A68120A07231340024AD35CD84010BD3A
:100C000000100240641B000830B5036A01229343C0
:100C10000362036A426884697325AC430D682C4300
:100C20000225AB438D682B43114DA84205D0114DD1
:100C3000A84202D0104DA84205D10825AB43CD688B
:100C40002B430425AB430A4DA84205D0094DA842C9
:100C500002D0094DA84205D1084D2A404D692A43CA
:100C60008D692A43426084614A684263036230BDF1
:100C7000002C01400044014000480140FFFCFFFF00
:100C800070B5036A184A13400362036A4268C46974
:100C90007325AC430E682643144C23408C68240211
:100CA0002343134CA04216D0114CA04205D0114C46
:100CB000A04202D0104CA04207D1104C14404A6907
:100CC000120122438C6925012A434260C6614A68A9
:100CD000C263036270BD0A4C1C40CB681B022343F5
:100CE000084C2340E0E7C046FFFEFFFFFFFDFFFF8B
:100CF000002C01400044014000480140FFCFFFFFAD
:100D0000FFF7FFFFFFFBFFFF30B5036A114A1340F7
:100D10000362026A4368C4690F4D2C400D682D02BE
:100D20002C430E4D15408A6812032A430C4DA842ED
:100D300005D00C4DA84202D00B4DA84204D10B4D5A
:100D40002B404D69AD012B434360C4614B68036484
:100D5000026230BDFFEFFFFFFF8CFFFFFFDFFFFFF1
:100D6000002C01400044014000480140FFBFFFFF4C
:100D700030B5036A046A0125AC4304628469EF3527
:100D8000AC43120122430A24A34319438261016246
:100D900030BD000030B5036A1024A34303628469A8
:100DA000036A054D2C4012032243A024A3430901EA
:100DB00019438261016230BDFF0FFFFF10B53D2274
:100DC000022383540468236801210B432360815468
:100DD000002010BD7047000003681E4A904206D0F4
:100DE0008022D205904202D01B4A904203D1702249
:100DF00093434A681343174A90420FD08022D2058A
:100E000090420BD0144A904208D0144A904205D028
:100E1000134A904202D0134A904203D1124A13401F
:100E2000CA681343802293434A69134303608B6863
:100E3000C3620B688362074B984205D0084B984207
:100E400002D0084B984201D10B690363012343612F
:100E50007047C046002C01400004004000200040C4
:100E60000044014000480140FFFCFFFF70B5041E34
:100E700014D03D23C35C002B0AD03D2502236355CB
:100E8000211D2068FFF7A8FF01236355002070BDD6
:100E90003C330022C25400F00FFDEEE70120F6E7DC
:100EA00070B5041E14D03D23C35C002B0AD03D2531
:100EB00002236355211D2068FFF78EFF0123635530
:100EC000002070BD3C330022C254FFF783FFEEE7E1
:100ED0000120F6E770B504000D0000281DD03D2369
:100EE000C35C002B13D03D260223A355211D20688F
:100EF000FFF772FF2268136808218B431360236891
:100F00001968294319600123A355002070BD3C33A3
:100F10000022C25400F0BCFCE5E70120F6E7000027
:100F200070B5036A102293430362036A42688469BE
:100F3000164D2C400D682D0225432024A3438C68B8
:100F400024012343124CA04216D0114CA04205D0DC
:100F5000104CA04202D0104CA04207D10F4C1440BC
:100F60004A69920022438C69A6003243426085613F
:100F70004A688263036270BD8024A3431C00CB686F
:100F80001B0123434024A343DFE7C046FF8CFFFF40
:100F9000002C01400044014000480140FFF3FFFFE6
:100FA00070B504000D003C23C35C012B69D03C23C9
:100FB0000121C15401330131C154042A37D019D958
:100FC000082A4AD00C2A2AD129000068FFF79CFE83
:100FD0002268D16980231B010B43D3612268D36946
:100FE00029490B40D3612168CB692A691202134356
:100FF000CB6114E0002A12D129000068FFF704FE3B
:101000002268936908210B4393612268936904392C
:101010008B4393612268936929690B4393613D2354
:101020000122E254013B0022E254002070BD29005D
:101030000068FFF775FF2268916980231B010B434D
:1010400093612268936910490B40936121688B6911
:101050002A69120213438B61E1E729000068FFF758
:101060000FFE2268D36908210B43D3612268D3693C
:1010700004398B43D3612268D36929690B43D36157
:10108000CDE70220D2E7C046FFFBFFFF30B5846802
:10109000034D2C401B021A4311432143816030BD94
:1010A000FF00FFFF70B5026893687024A3434C688B
:1010B00023430724A3430C68234393604B68502BBE
:1010C0001FD00AD9602B22D0702B05D10B698A68FA
:1010D000C9680068FFF7DAFF70BD402BFCD10368D8
:1010E0001D6A1A6A0124A2431A620468A369F022E5
:1010F00093431A000B691B011343A36103681D622C
:10110000EAE70A6989680068FFF732FEE4E70A69DE
:1011100089680068FFF73EFEDEE70000F8B50400CE
:101120003C23C35C012B16D03C25012747553D26A7
:1011300002238355FFF7B6FF2268D36840218B4313
:10114000D3602268D36805490B40D360A7550023BC
:1011500063550020F8BD0220FCE7C046FFBFFFFF3B
:1011600010B501248C40036AA3430362036A8A40DA
:101170001A43026210BD000010B50400012200688D
:10118000FFF7EEFF23680A4A934205D0094A9342CB
:1011900002D0094A934204D1596C802212020A43B8
:1011A0005A642268136801210B431360002010BDAC
:1011B000002C01400044014000480140F0B53C23B0
:1011C000C35C012B1ED03C22012585543D24022303
:1011D0000355066873687027BB43736006687368BD
:1011E0000F683B4373600668B3688027BB43B360F6
:1011F0000668B36849680B43B36005550023835400
:101200000020F0BD0220FCE770B50400836802698D
:10121000134342691343C269134301680A68604873
:10122000024013430B60226853685E490B40E1683B
:101230000B435360A269236A1A4321688B685A489A
:10124000034013438B602568584B9D4220D0584B78
:101250009D4231D0102380221202E16991422FD0A9
:10126000022B00D180E000D86EE0042B00D187E093
:10127000082B00D092E06168480880231B029C463E
:101280006044FEF741FF0004000CE860002040E0ED
:10129000484B1A6B03231340012B09D0002B05D0B8
:1012A000022B07D0032B09D01023D4E70023D2E769
:1012B0000423D0E70823CEE70023CCE70223CAE7C4
:1012C000022B27D00FD9042B2FD0082B39D16368DC
:1012D000580880235B029C4660446168FEF714FF57
:1012E00083B200200CE0002B2BD1FFF77DFC4000E7
:1012F00063685B08C0186168FEF706FF83B20020D0
:101300000F22190091435B10083A13400B432268E7
:10131000D36070BD63685808274B9C466044616881
:10132000FEF7F2FE83B20020EAE7FFF74BFB400036
:1013300063685B08C0186168FEF7E6FE83B20020B0
:10134000DEE701200023DBE7002B27D1FFF74CFC71
:1013500063685B08C0186168FEF7D6FE2368000466
:10136000000CD8600020D4E761684808134B9C4605
:101370006044FEF7C9FE0004000CE8600020C8E7E6
:10138000FFF720FB63685B08C0186168FEF7BCFECE
:1013900023680004000CD8600020BAE70120B8E7F9
:1013A000F369FFEFFFCFFFFFFFF4FFFF00380140BD
:1013B00000440040001002400024F40000127A00B3
:1013C000436ADB0706D5026853682C490B40816AE3
:1013D0000B435360436A9B0706D50268536828494C
:1013E0000B40C16A0B435360436A5B0706D5026832
:1013F000536824490B40016B0B435360436A1B073E
:1014000006D50268536820490B40416B0B4353607B
:10141000436ADB0606D5026893681C490B40816B62
:101420000B439360436A9B0606D50268936818498C
:101430000B40C16B0B439360436A5B060BD502689C
:10144000536814490B40016C0B43536080235B03CA
:10145000026C9A420AD0436A1B0606D5026853689A
:101460000D490B40816C0B43536070470268536811
:101470000A490B40416C0B435360ECE7FFFFFDFF53
:10148000FFFFFEFFFFFFFBFFFF7FFFFFFFEFFFFF01
:10149000FFDFFFFFFFFFEFFFFFFFF7FFFFFF9FFFF4
:1014A000F0B5C64600B506000C0017009846069D2C
:1014B0003368DB6923401B1B5A425341BB421ED198
:1014C0006B1CF5D0002D05D0FEF7D4FE4346C01AA4
:1014D000A842EDD9326813680B490B40136032689B
:1014E0009368A331FF318B43936020236922B35467
:1014F0000132B35448330022F254032000E00020AC
:1015000004BC9046F0BDC0465FFEFFFF30B583B01F
:1015100004000023C366FEF7ADFE05002368174AEA
:1015200093420AD020236922A3540132A3544833A2
:101530000022E254002003B030BD1B681B0710D40A
:1015400023681B685B07EDD580210D4B00932B00B2
:101550000022C9032000FFF7A3FF0028E2D00320E8
:10156000E9E78021064B0093030000228903200055
:10157000FFF796FF0028E3D00320DCE700380140A6
:10158000FFFFFF0110B5041E30D06923C35C002BA0
:1015900022D069232422E2542268136801218B435C
:1015A00013602000FFF730FE012814D0636A002B7F
:1015B00018D1226853680E490B4053602268936823
:1015C0002A218B4393602268136829390B431360E7
:1015D0002000FFF79BFF10BD68330022C25400F0CB
:1015E000C3F9D6E72000FFF7EBFEE2E70120F2E7C0
:1015F000FFB7FFFFF0B589B01422002103A800F067
:1016000085FA1F4B59698020C003014359615A690B
:1016100002400092009A596980208002014359617A
:101620005A6902400192019A5A698021C9020A430B
:101630005A615B690B400293029B9027FF050022D1
:1016400001213800FEF73AFF0E4E0022082130003B
:10165000FEF734FF012503950495002405940694B4
:1016600003A93800FEF76AFE082303930495059446
:10167000069403A93000FEF761FE09B0F0BDC04634
:10168000001002400004004810B509488023DB0523
:101690000360F0235B00436000238360FA22920022
:1016A000C260036183610821FFF714FC10BDC046CE
:1016B0006C00002030B58FB01422002109A800F082
:1016C00025FA0822002107A800F020FA1C22002198
:1016D000684600F01BFA1B4C1B4B2360F0235B0099
:1016E00063600025A560194BE3602561A5612000BA
:1016F000FFF7BCFB2000FFF7D3FB08212000FFF71A
:10170000E9FB062309934A330A930B950D9509A922
:101710002000FFF703FD0795089507A92000FFF7B4
:101720004DFD6023009301955E3B029304950422D6
:1017300069462000FFF734FC200000F0EDF80FB000
:1017400030BDC0462C000020000400403E030000D5
:1017500010B50948094B036096231B024360002320
:101760008360C36003610C2242618361C3610362D1
:101770004362FFF707FF10BDAC00002000440040AB
:1017800000B593B03022002106A800F0BFF9102266
:10179000002101A800F0BAF9202305931F3B0D9307
:1017A00005A8FEF791FE07230193043B0293002353
:1017B00003930493012101A8FFF74EF913B000BD74
:1017C00010B5FEF73FFDFFF7DBFFFFF713FFFFF755
:1017D0005BFFFFF76FFFFFF7BBFF1F4C2000FFF71A
:1017E000EDFA04212000FFF7C7FC2368C82252004D
:1017F0009A630BE00533194A1360184B1B68FA22F1
:101800009200934222DD154B00225A609024E40599
:10181000002201212000FEF751FE0920FEF730FDD5
:10182000012201212000FEF749FE0020FEF728FDDD
:101830000A4A1368084909688B635268012AD9D09B
:10184000002ADAD1053B054A1360D6E7132BDDDC0D
:10185000024B01225A60D9E72C0000200000002032
:1018600082B00A4B996901221143996199690A4032
:101870000092009ADA69802149050A43DA61DB693E
:101880000B400193019B02B07047C046001002401C
:1018900082B002688023DB059A4201D002B0704713
:1018A000044AD16901231943D161D26913400193DC
:1018B000019BF3E70010024010B588B00400142229
:1018C000002103A800F022F92268114B9A4201D0AE
:1018D00008B010BD0F4BD96902221143D961D969F3
:1018E0001140019101995969802080020143596199
:1018F0005B6903400293029B4023039304923F3BA6
:101900000793902003A9C005FEF718FDE0E7C04645
:10191000000400400010024010B586B004001422FC
:10192000002101A800F0F2F822680D4B9A4201D084
:1019300006B010BD0B4A51698020800201435161FD
:10194000536903400093009B802301937E3B0293E5
:10195000013B0593902001A9C005FEF7EFFCE7E7E6
:10196000000400400010024010B588B004001422AA
:10197000002103A800F0CAF82268124B9A4201D055
:1019800008B010BD104BD969802292021143D96171
:10199000D9691140019101995969114359615B69F4
:1019A0001A400292029B094B0393022304930133D2
:1019B0000693023B0793902003A9C005FEF7BEFCE7
:1019C000DEE7C046004400400010024004800000F2
:1019D0007047FEE77047704710B5FEF743FC10BD37
:1019E000114B1A6801210A431A605A680F480240D5
:1019F0005A601A680E4802401A601A680D48024080
:101A00001A605A680C4802405A60DA6A0F20824312
:101A1000DA621A6B094802401A635A6B8A435A63A6
:101A200000229A607047C046001002400CB8FF08C0
:101A3000FFFFF6FEFFFFFBFFFFFFC0FF2CFEFFFFD7
:101A40001348854613480168090E134A914205D18F
:101A5000124813490160134813490160134814499F
:101A6000144A002302E0D458C4500433C4188C42F2
:101A7000F9D3114A114C002301E013600432A24251
:101A8000FBD3FFF7ADFF00F01DF8FFF799FEFEE76F
:101A900000180020040000001F0000001810024081
:101AA00001000000000001400000000000000020D4
:101AB0000C000020741B00080C0000201C010020FA
:101AC000FEE7000070B500260C4D0D4C641BA41001
:101AD000A64209D1002600F021F80A4D0A4C641BE9
:101AE000A410A64205D170BDB300EB58984701364B
:101AF000EEE7B300EB5898470136F2E76C1B00089D
:101B00006C1B00086C1B0008701B000803001218F7
:101B1000934200D1704719700133F9E7F8B5C04618
:101B2000F8BC08BC9E467047F8B5C046F8BC08BC77
:041B30009E46704716
:101B340002030405060708090A0B0C0D0E0F10100A
:101B44000102030405060708090A0B0C0D0E0F1009
:101B54000000000000000000010203040607080959
:081B640000000000010203046F
:041B6C00E900000884
:041B7000C1000008A8
:0C1B7400E80300000100000000127A00ED
:0400000508001A4194
:00000001FF
